{
    "contractName": "PricePrizePool",
    "abi": [
        {
            "inputs": [
                {
                    "internalType": "uint32",
                    "name": "_betPeriodSeconds",
                    "type": "uint32"
                },
                {
                    "internalType": "uint32",
                    "name": "_priceSetSeconds",
                    "type": "uint32"
                }
            ],
            "stateMutability": "nonpayable",
            "type": "constructor"
        },
        {
            "anonymous": false,
            "inputs": [
                {
                    "indexed": true,
                    "internalType": "uint32",
                    "name": "roundId",
                    "type": "uint32"
                },
                {
                    "indexed": true,
                    "internalType": "address",
                    "name": "user",
                    "type": "address"
                },
                {
                    "indexed": true,
                    "internalType": "uint32",
                    "name": "guess",
                    "type": "uint32"
                },
                {
                    "indexed": false,
                    "internalType": "uint256",
                    "name": "amount",
                    "type": "uint256"
                }
            ],
            "name": "Deposited",
            "type": "event"
        },
        {
            "anonymous": false,
            "inputs": [
                {
                    "indexed": true,
                    "internalType": "address",
                    "name": "previousOwner",
                    "type": "address"
                },
                {
                    "indexed": true,
                    "internalType": "address",
                    "name": "newOwner",
                    "type": "address"
                }
            ],
            "name": "OwnershipTransferred",
            "type": "event"
        },
        {
            "anonymous": false,
            "inputs": [
                {
                    "indexed": true,
                    "internalType": "bytes32",
                    "name": "role",
                    "type": "bytes32"
                },
                {
                    "indexed": true,
                    "internalType": "bytes32",
                    "name": "previousAdminRole",
                    "type": "bytes32"
                },
                {
                    "indexed": true,
                    "internalType": "bytes32",
                    "name": "newAdminRole",
                    "type": "bytes32"
                }
            ],
            "name": "RoleAdminChanged",
            "type": "event"
        },
        {
            "anonymous": false,
            "inputs": [
                {
                    "indexed": true,
                    "internalType": "bytes32",
                    "name": "role",
                    "type": "bytes32"
                },
                {
                    "indexed": true,
                    "internalType": "address",
                    "name": "account",
                    "type": "address"
                },
                {
                    "indexed": true,
                    "internalType": "address",
                    "name": "sender",
                    "type": "address"
                }
            ],
            "name": "RoleGranted",
            "type": "event"
        },
        {
            "anonymous": false,
            "inputs": [
                {
                    "indexed": true,
                    "internalType": "bytes32",
                    "name": "role",
                    "type": "bytes32"
                },
                {
                    "indexed": true,
                    "internalType": "address",
                    "name": "account",
                    "type": "address"
                },
                {
                    "indexed": true,
                    "internalType": "address",
                    "name": "sender",
                    "type": "address"
                }
            ],
            "name": "RoleRevoked",
            "type": "event"
        },
        {
            "inputs": [],
            "name": "DEFAULT_ADMIN_ROLE",
            "outputs": [
                {
                    "internalType": "bytes32",
                    "name": "",
                    "type": "bytes32"
                }
            ],
            "stateMutability": "view",
            "type": "function"
        },
        {
            "inputs": [],
            "name": "MANAGE_ROLE",
            "outputs": [
                {
                    "internalType": "bytes32",
                    "name": "",
                    "type": "bytes32"
                }
            ],
            "stateMutability": "view",
            "type": "function"
        },
        {
            "inputs": [],
            "name": "MAX_CARDINALITY",
            "outputs": [
                {
                    "internalType": "uint8",
                    "name": "",
                    "type": "uint8"
                }
            ],
            "stateMutability": "view",
            "type": "function"
        },
        {
            "inputs": [],
            "name": "betPeriodSeconds",
            "outputs": [
                {
                    "internalType": "uint32",
                    "name": "",
                    "type": "uint32"
                }
            ],
            "stateMutability": "view",
            "type": "function"
        },
        {
            "inputs": [
                {
                    "internalType": "uint32",
                    "name": "",
                    "type": "uint32"
                },
                {
                    "internalType": "address",
                    "name": "",
                    "type": "address"
                },
                {
                    "internalType": "uint32",
                    "name": "",
                    "type": "uint32"
                }
            ],
            "name": "bets",
            "outputs": [
                {
                    "internalType": "uint256",
                    "name": "",
                    "type": "uint256"
                }
            ],
            "stateMutability": "view",
            "type": "function"
        },
        {
            "inputs": [
                {
                    "internalType": "uint32",
                    "name": "betSeconds",
                    "type": "uint32"
                }
            ],
            "name": "changeBetSeconds",
            "outputs": [],
            "stateMutability": "nonpayable",
            "type": "function"
        },
        {
            "inputs": [
                {
                    "internalType": "uint32",
                    "name": "priceSeconds",
                    "type": "uint32"
                }
            ],
            "name": "changePriceSetSeconds",
            "outputs": [],
            "stateMutability": "nonpayable",
            "type": "function"
        },
        {
            "inputs": [],
            "name": "claim",
            "outputs": [
                {
                    "internalType": "uint256",
                    "name": "",
                    "type": "uint256"
                }
            ],
            "stateMutability": "nonpayable",
            "type": "function"
        },
        {
            "inputs": [
                {
                    "internalType": "uint32",
                    "name": "_guess",
                    "type": "uint32"
                }
            ],
            "name": "deposit",
            "outputs": [],
            "stateMutability": "payable",
            "type": "function"
        },
        {
            "inputs": [],
            "name": "generalInfo",
            "outputs": [
                {
                    "internalType": "uint32",
                    "name": "",
                    "type": "uint32"
                },
                {
                    "internalType": "uint64",
                    "name": "",
                    "type": "uint64"
                },
                {
                    "internalType": "uint64",
                    "name": "",
                    "type": "uint64"
                },
                {
                    "internalType": "uint256",
                    "name": "",
                    "type": "uint256"
                }
            ],
            "stateMutability": "view",
            "type": "function"
        },
        {
            "inputs": [
                {
                    "internalType": "bytes32",
                    "name": "role",
                    "type": "bytes32"
                }
            ],
            "name": "getRoleAdmin",
            "outputs": [
                {
                    "internalType": "bytes32",
                    "name": "",
                    "type": "bytes32"
                }
            ],
            "stateMutability": "view",
            "type": "function"
        },
        {
            "inputs": [
                {
                    "internalType": "bytes32",
                    "name": "role",
                    "type": "bytes32"
                },
                {
                    "internalType": "address",
                    "name": "account",
                    "type": "address"
                }
            ],
            "name": "grantRole",
            "outputs": [],
            "stateMutability": "nonpayable",
            "type": "function"
        },
        {
            "inputs": [
                {
                    "internalType": "uint32",
                    "name": "",
                    "type": "uint32"
                },
                {
                    "internalType": "uint32",
                    "name": "",
                    "type": "uint32"
                }
            ],
            "name": "guessTotalDeposit",
            "outputs": [
                {
                    "internalType": "uint256",
                    "name": "",
                    "type": "uint256"
                }
            ],
            "stateMutability": "view",
            "type": "function"
        },
        {
            "inputs": [
                {
                    "internalType": "bytes32",
                    "name": "role",
                    "type": "bytes32"
                },
                {
                    "internalType": "address",
                    "name": "account",
                    "type": "address"
                }
            ],
            "name": "hasRole",
            "outputs": [
                {
                    "internalType": "bool",
                    "name": "",
                    "type": "bool"
                }
            ],
            "stateMutability": "view",
            "type": "function"
        },
        {
            "inputs": [
                {
                    "internalType": "address",
                    "name": "player",
                    "type": "address"
                }
            ],
            "name": "myWinnings",
            "outputs": [
                {
                    "internalType": "uint256[7]",
                    "name": "",
                    "type": "uint256[7]"
                }
            ],
            "stateMutability": "view",
            "type": "function"
        },
        {
            "inputs": [],
            "name": "owner",
            "outputs": [
                {
                    "internalType": "address",
                    "name": "",
                    "type": "address"
                }
            ],
            "stateMutability": "view",
            "type": "function"
        },
        {
            "inputs": [],
            "name": "priceInfo",
            "outputs": [
                {
                    "internalType": "uint32",
                    "name": "",
                    "type": "uint32"
                },
                {
                    "internalType": "uint64",
                    "name": "",
                    "type": "uint64"
                },
                {
                    "internalType": "uint32",
                    "name": "",
                    "type": "uint32"
                }
            ],
            "stateMutability": "view",
            "type": "function"
        },
        {
            "inputs": [],
            "name": "priceSetSeconds",
            "outputs": [
                {
                    "internalType": "uint32",
                    "name": "",
                    "type": "uint32"
                }
            ],
            "stateMutability": "view",
            "type": "function"
        },
        {
            "inputs": [],
            "name": "renounceOwnership",
            "outputs": [],
            "stateMutability": "nonpayable",
            "type": "function"
        },
        {
            "inputs": [
                {
                    "internalType": "bytes32",
                    "name": "role",
                    "type": "bytes32"
                },
                {
                    "internalType": "address",
                    "name": "account",
                    "type": "address"
                }
            ],
            "name": "renounceRole",
            "outputs": [],
            "stateMutability": "nonpayable",
            "type": "function"
        },
        {
            "inputs": [
                {
                    "internalType": "bytes32",
                    "name": "role",
                    "type": "bytes32"
                },
                {
                    "internalType": "address",
                    "name": "account",
                    "type": "address"
                }
            ],
            "name": "revokeRole",
            "outputs": [],
            "stateMutability": "nonpayable",
            "type": "function"
        },
        {
            "inputs": [],
            "name": "roundId",
            "outputs": [
                {
                    "internalType": "uint32",
                    "name": "",
                    "type": "uint32"
                }
            ],
            "stateMutability": "view",
            "type": "function"
        },
        {
            "inputs": [],
            "name": "roundStartedAt",
            "outputs": [
                {
                    "internalType": "uint64",
                    "name": "",
                    "type": "uint64"
                }
            ],
            "stateMutability": "view",
            "type": "function"
        },
        {
            "inputs": [],
            "name": "roundTotal",
            "outputs": [
                {
                    "internalType": "uint256",
                    "name": "",
                    "type": "uint256"
                }
            ],
            "stateMutability": "view",
            "type": "function"
        },
        {
            "inputs": [],
            "name": "setFinalPrice",
            "outputs": [],
            "stateMutability": "nonpayable",
            "type": "function"
        },
        {
            "inputs": [
                {
                    "internalType": "bytes4",
                    "name": "interfaceId",
                    "type": "bytes4"
                }
            ],
            "name": "supportsInterface",
            "outputs": [
                {
                    "internalType": "bool",
                    "name": "",
                    "type": "bool"
                }
            ],
            "stateMutability": "view",
            "type": "function"
        },
        {
            "inputs": [
                {
                    "internalType": "address",
                    "name": "newOwner",
                    "type": "address"
                }
            ],
            "name": "transferOwnership",
            "outputs": [],
            "stateMutability": "nonpayable",
            "type": "function"
        },
        {
            "inputs": [
                {
                    "internalType": "address",
                    "name": "_oldManager",
                    "type": "address"
                },
                {
                    "internalType": "address",
                    "name": "_newManager",
                    "type": "address"
                }
            ],
            "name": "updateManageRole",
            "outputs": [],
            "stateMutability": "nonpayable",
            "type": "function"
        }
    ],
    "bytecode": "60806040523480156200001157600080fd5b506040516200210c3803806200210c833981016040819052620000349162000163565b6200003f33620000f5565b6021805463ffffffff838116600160e01b026001600160e01b03918616600160c01b027fffffffff00000000ffffffff00000000000000000000000000000000000000009093169290921773d4a33860578de61dbabdc8bfdb98fd742fa7028e17811691909117909155620000b5906200014516565b602280546001600160401b03929092166001600160401b031990921691909117905550506021805463ffffffff60a01b1916600160a01b1790556200019b565b600080546001600160a01b038381166001600160a01b0319831681178455604051919092169283917f8be0079c531659141344cd1fd0a4f28419497f9722a3daafe3b4186f6b6457e09190a35050565b4290565b805163ffffffff811681146200015e57600080fd5b919050565b600080604083850312156200017757600080fd5b620001828362000149565b9150620001926020840162000149565b90509250929050565b611f6180620001ab6000396000f3fe6080604052600436106101b75760003560e01c8063819060da116100ec578063a217fddf1161008a578063ca8040c411610064578063ca8040c414610575578063d547741f1461058b578063e75b6e6d146105ab578063f2fde38b146105e957600080fd5b8063a217fddf14610529578063b7e8bc991461053e578063c17466f91461055157600080fd5b80638da5cb5b116100c65780638da5cb5b1461047c57806391583fe5146104a457806391d14854146104d1578063a16e56fc146104f157600080fd5b8063819060da146104115780638200d873146104315780638cd221c91461045857600080fd5b80635877b5081161015957806360a4b76a1161013357806360a4b76a1461035d578063645b3e051461037f578063715018a6146103b857806381059f78146103cd57600080fd5b80635877b508146103085780635b679b0d146103285780635e5698da1461033d57600080fd5b80632f2ff15d116101955780632f2ff15d1461027957806336568abe1461029b5780634e71d92d146102bb578063521f4af4146102d057600080fd5b806301ffc9a7146101bc578063248a9ca3146101f157806325a6c54514610230575b600080fd5b3480156101c857600080fd5b506101dc6101d736600461196a565b610609565b60405190151581526020015b60405180910390f35b3480156101fd57600080fd5b5061022261020c366004611994565b6000908152600160208190526040909120015490565b6040519081526020016101e8565b34801561023c57600080fd5b50610245610640565b6040805163ffffffff9590951685526001600160401b039384166020860152919092169083015260608201526080016101e8565b34801561028557600080fd5b506102996102943660046119c9565b6106ad565b005b3480156102a757600080fd5b506102996102b63660046119c9565b6106d8565b3480156102c757600080fd5b5061022261075b565b3480156102dc57600080fd5b506102226102eb366004611a09565b601f60209081526000928352604080842090915290825290205481565b34801561031457600080fd5b50610299610323366004611a33565b6109f5565b34801561033457600080fd5b50610299610a23565b34801561034957600080fd5b50610299610358366004611a4e565b610f53565b34801561036957600080fd5b50610222600080516020611f0c83398151915281565b34801561038b57600080fd5b506021546103a390600160c01b900463ffffffff1681565b60405163ffffffff90911681526020016101e8565b3480156103c457600080fd5b50610299610fa8565b3480156103d957600080fd5b506103e2610fbc565b6040805163ffffffff94851681526001600160401b0390931660208401529216918101919091526060016101e8565b34801561041d57600080fd5b5061029961042c366004611a33565b6110ae565b34801561043d57600080fd5b50610446600781565b60405160ff90911681526020016101e8565b34801561046457600080fd5b506021546103a390600160a01b900463ffffffff1681565b34801561048857600080fd5b506000546040516001600160a01b0390911681526020016101e8565b3480156104b057600080fd5b506104c46104bf366004611a78565b6110db565b6040516101e89190611a93565b3480156104dd57600080fd5b506101dc6104ec3660046119c9565b611269565b3480156104fd57600080fd5b50602254610511906001600160401b031681565b6040516001600160401b0390911681526020016101e8565b34801561053557600080fd5b50610222600081565b61029961054c366004611a33565b611294565b34801561055d57600080fd5b506021546103a390600160e01b900463ffffffff1681565b34801561058157600080fd5b5061022260205481565b34801561059757600080fd5b506102996105a63660046119c9565b611430565b3480156105b757600080fd5b506102226105c6366004611ac4565b601e60209081526000938452604080852082529284528284209052825290205481565b3480156105f557600080fd5b50610299610604366004611a78565b611456565b60006001600160e01b03198216637965db0b60e01b148061063a57506301ffc9a760e01b6001600160e01b03198316145b92915050565b602154602254600091829182918291829161067291600160c01b90910463ffffffff16906001600160401b0316611b1d565b60215490915063ffffffff600160a01b8204811691839161069b91600160e01b90041682611b1d565b60205494509450945094505090919293565b600082815260016020819052604090912001546106c9816114cf565b6106d383836114d9565b505050565b6001600160a01b038116331461074d5760405162461bcd60e51b815260206004820152602f60248201527f416363657373436f6e74726f6c3a2063616e206f6e6c792072656e6f756e636560448201526e103937b632b9903337b91039b2b63360891b60648201526084015b60405180910390fd5b6107578282611544565b5050565b60006107656115ab565b6107d75760405162461bcd60e51b815260206004820152603e60248201527f4e65787420726f756e642077696c6c20737461727420696e206c65737320746860448201527f616e2031206d696e7574652c2063616e6e6f7420636c61696d206e6f772100006064820152608401610744565b60006107e2336110db565b90506000805b600760ff8216101561097d576000838260ff166007811061080b5761080b611b3d565b60200201519050801561096a57600060028360ff166007811061083057610830611b3d565b6040805160c08101825260049290920292909201805463ffffffff9081168352600182015460208401526002820154808216948401949094526001600160401b036401000000008504166060840152600160601b909304909216608082015260039091015460a082018181529192508391906108ad908390611b53565b90525080600260ff8516600781106108c7576108c7611b3d565b825160049190910291909101805463ffffffff92831663ffffffff19909116178155602083015160018201556040830151600282018054606086015160808701518616600160601b0263ffffffff60601b196001600160401b03909216640100000000026bffffffffffffffffffffffff19909316949096169390931717919091169290921790915560a0909101516003909101556109668285611b66565b9350505b508061097581611b79565b9150506107e8565b50600081116109c15760405162461bcd60e51b815260206004820152601060248201526f4e6f7468696e6720746f20636c61696d60801b6044820152606401610744565b604051339082156108fc029083906000818181858888f193505050501580156109ee573d6000803e3d6000fd5b5092915050565b6109fd611635565b6021805463ffffffff909216600160c01b0263ffffffff60c01b19909216919091179055565b6000546001600160a01b0316331480610a4f5750610a4f600080516020611f0c83398151915233611269565b610a5857600080fd5b610a6061168f565b610aac5760405162461bcd60e51b815260206004820152601b60248201527f47756573732074696d65206973206e6f74206f766572207965742100000000006044820152606401610744565b60215460408051633fabe5a360e21b815290516000926001600160a01b03169163feaf968c9160048083019260a09291908290030181865afa158015610af6573d6000803e3d6000fd5b505050506040513d601f19601f82011682018060405250810190610b1a9190611bb2565b5050509150506000602160009054906101000a90046001600160a01b03166001600160a01b031663313ce5676040518163ffffffff1660e01b8152600401602060405180830381865afa158015610b75573d6000803e3d6000fd5b505050506040513d601f19601f82011682018060405250810190610b999190611c02565b90506000610ba8600283611c25565b610bb390600a611d22565b610bbd9084611d47565b602154600160a01b900463ffffffff9081166000908152601f60209081526040808320938516835292905220549091504290829015610bfd575081610cdb565b8260015b6127108163ffffffff161015610cd7576000610c1d8287611d5b565b90506000610c2b8388611d78565b602154600160a01b900463ffffffff9081166000908152601f6020908152604080832087851684529091528082205492841682529020549192509081151580610c745750600081115b15610cc157600082118015610c895750600081115b15610ca65780821115610c9e57839550610cb8565b829550610cb8565b8115610cb457839550610cb8565b8295505b50505050610cd7565b610ccc600186611d5b565b945050505050610c01565b5090505b602154600090600790610cfd90600190600160a01b900463ffffffff16611d78565b610d079190611d95565b9050600060028263ffffffff1660078110610d2457610d24611b3d565b6040805160c08101825260049290920292909201805463ffffffff9081168352600182015460208401526002820154808216948401949094526001600160401b036401000000008504166060840152600160601b909304909216608082015260039091015460a0820181905290915015610dd7576000805460a08301516040516001600160a01b039092169281156108fc029290818181858888f19350505050158015610dd5573d6000803e3d6000fd5b505b6040518060c00160405280602160149054906101000a900463ffffffff1663ffffffff16815260200160205481526020018663ffffffff168152602001856001600160401b031681526020018463ffffffff16815260200160205481525060028363ffffffff1660078110610e4e57610e4e611b3d565b825160049190910291909101805463ffffffff92831663ffffffff19909116178155602083015160018201556040830151600282018054606086015160808701518616600160601b0263ffffffff60601b196001600160401b03909216640100000000026bffffffffffffffffffffffff1990931694871694909417919091171691909117905560a09092015160039092019190915560218054600160a01b9004909116906014610efe83611db8565b91906101000a81548163ffffffff021916908363ffffffff16021790555050610f244290565b6022805467ffffffffffffffff19166001600160401b0392909216919091179055505060006020555050505050565b610f5b611635565b610f73600080516020611f0c83398151915283611269565b15610f9057610f90600080516020611f0c83398151915283611544565b610757600080516020611f0c833981519152826116d4565b610fb0611635565b610fba60006116de565b565b60215460009081908190600160a01b900463ffffffff16600103610fe65750600092839250829150565b60215460009060079061100890600290600160a01b900463ffffffff16611d78565b6110129190611d95565b9050600060028263ffffffff166007811061102f5761102f611b3d565b6040805160c08101825260049290920292909201805463ffffffff90811683526001820154602084015260028201548082169484018590526001600160401b0364010000000082041660608501819052600160601b9091049091166080840181905260039092015460a090930192909252919790965090945092505050565b6110b6611635565b6021805463ffffffff909216600160e01b026001600160e01b03909216919091179055565b6110e361194c565b6110eb61194c565b60005b600760ff821610156109ee57600060028260ff166007811061111257611112611b3d565b6040805160c08101825260049290920292909201805463ffffffff90811683526001820154602084018190526002830154808316958501959095526001600160401b036401000000008604166060850152600160601b9094041660808301526003015460a082015291501580159061119457506000816080015163ffffffff16115b1561125657805163ffffffff9081166000908152601e602090815260408083206001600160a01b038a1684528252808320608086015190941683529290522054801561125457815163ffffffff9081166000908152601f602090815260408083206080870151851684528252822054908501519092611234916014916112289160139161122e9188918591908b9061172e16565b90611741565b9061172e565b905080868660ff166007811061124c5761124c611b3d565b602002015250505b505b508061126181611b79565b9150506110ee565b60009182526001602090815260408084206001600160a01b0393909316845291905290205460ff1690565b662386f26fc100003410156112eb5760405162461bcd60e51b815260206004820152601860248201527f4d696e696d756d206465706f73697420697320302e30312100000000000000006044820152606401610744565b6112f361168f565b156113395760405162461bcd60e51b81526020600482015260166024820152754775657373696e672074696d65206973206f7665722160501b6044820152606401610744565b60215463ffffffff600160a01b90910481166000908152601e6020908152604080832033845282528083209385168352929052908120805434929061137f908490611b66565b909155505060215463ffffffff600160a01b90910481166000908152601f60209081526040808320938516835292905290812080543492906113c2908490611b66565b9250508190555034602060008282546113db9190611b66565b909155505060215460405134815263ffffffff838116923392600160a01b909104909116907f32efc8db59ba3a016d8262569a9c09a3d7f58efa7617d572ba9d2da64cff1a359060200160405180910390a450565b6000828152600160208190526040909120015461144c816114cf565b6106d38383611544565b61145e611635565b6001600160a01b0381166114c35760405162461bcd60e51b815260206004820152602660248201527f4f776e61626c653a206e6577206f776e657220697320746865207a65726f206160448201526564647265737360d01b6064820152608401610744565b6114cc816116de565b50565b6114cc813361174d565b6114e38282611269565b6107575760008281526001602081815260408084206001600160a01b0386168086529252808420805460ff19169093179092559051339285917f2f8788117e7eff1d82e926ec794901d17c78024a50270940304540a733656f0d9190a45050565b61154e8282611269565b156107575760008281526001602090815260408083206001600160a01b0385168085529252808320805460ff1916905551339285917ff6391f5c32d9c69d2a47ea670b442974b53935d1edc7fd64eb21e047a839171b9190a45050565b602154602254600091829163ffffffff600160e01b83048116926115e392600160c01b909104909116906001600160401b0316611b1d565b6115ed9190611b1d565b90504260006001600160401b03808416908316116116145761160f8284611ddb565b61161e565b61161e8383611ddb565b603c6001600160401b039091161015949350505050565b6000546001600160a01b03163314610fba5760405162461bcd60e51b815260206004820181905260248201527f4f776e61626c653a2063616c6c6572206973206e6f7420746865206f776e65726044820152606401610744565b60215460225460009142916116ba91600160c01b900463ffffffff16906001600160401b0316611b1d565b6001600160401b0316816001600160401b03161191505090565b61075782826114d9565b600080546001600160a01b038381166001600160a01b0319831681178455604051919092169283917f8be0079c531659141344cd1fd0a4f28419497f9722a3daafe3b4186f6b6457e09190a35050565b600061173a8284611dfb565b9392505050565b600061173a8284611d47565b6117578282611269565b6107575761176f816001600160a01b031660146117b1565b61177a8360206117b1565b60405160200161178b929190611e36565b60408051601f198184030181529082905262461bcd60e51b825261074491600401611eab565b606060006117c0836002611dfb565b6117cb906002611b66565b6001600160401b038111156117e2576117e2611ede565b6040519080825280601f01601f19166020018201604052801561180c576020820181803683370190505b509050600360fc1b8160008151811061182757611827611b3d565b60200101906001600160f81b031916908160001a905350600f60fb1b8160018151811061185657611856611b3d565b60200101906001600160f81b031916908160001a905350600061187a846002611dfb565b611885906001611b66565b90505b60018111156118fd576f181899199a1a9b1b9c1cb0b131b232b360811b85600f16601081106118b9576118b9611b3d565b1a60f81b8282815181106118cf576118cf611b3d565b60200101906001600160f81b031916908160001a90535060049490941c936118f681611ef4565b9050611888565b50831561173a5760405162461bcd60e51b815260206004820181905260248201527f537472696e67733a20686578206c656e67746820696e73756666696369656e746044820152606401610744565b6040518060e001604052806007906020820280368337509192915050565b60006020828403121561197c57600080fd5b81356001600160e01b03198116811461173a57600080fd5b6000602082840312156119a657600080fd5b5035919050565b80356001600160a01b03811681146119c457600080fd5b919050565b600080604083850312156119dc57600080fd5b823591506119ec602084016119ad565b90509250929050565b803563ffffffff811681146119c457600080fd5b60008060408385031215611a1c57600080fd5b611a25836119f5565b91506119ec602084016119f5565b600060208284031215611a4557600080fd5b61173a826119f5565b60008060408385031215611a6157600080fd5b611a6a836119ad565b91506119ec602084016119ad565b600060208284031215611a8a57600080fd5b61173a826119ad565b60e08101818360005b6007811015611abb578151835260209283019290910190600101611a9c565b50505092915050565b600080600060608486031215611ad957600080fd5b611ae2846119f5565b9250611af0602085016119ad565b9150611afe604085016119f5565b90509250925092565b634e487b7160e01b600052601160045260246000fd5b6001600160401b038181168382160190808211156109ee576109ee611b07565b634e487b7160e01b600052603260045260246000fd5b8181038181111561063a5761063a611b07565b8082018082111561063a5761063a611b07565b600060ff821660ff8103611b8f57611b8f611b07565b60010192915050565b805169ffffffffffffffffffff811681146119c457600080fd5b600080600080600060a08688031215611bca57600080fd5b611bd386611b98565b9450602086015193506040860151925060608601519150611bf660808701611b98565b90509295509295909350565b600060208284031215611c1457600080fd5b815160ff8116811461173a57600080fd5b60ff828116828216039081111561063a5761063a611b07565b600181815b80851115611c79578160001904821115611c5f57611c5f611b07565b80851615611c6c57918102915b93841c9390800290611c43565b509250929050565b600082611c905750600161063a565b81611c9d5750600061063a565b8160018114611cb35760028114611cbd57611cd9565b600191505061063a565b60ff841115611cce57611cce611b07565b50506001821b61063a565b5060208310610133831016604e8410600b8410161715611cfc575081810a61063a565b611d068383611c3e565b8060001904821115611d1a57611d1a611b07565b029392505050565b600061173a60ff841683611c81565b634e487b7160e01b600052601260045260246000fd5b600082611d5657611d56611d31565b500490565b63ffffffff8181168382160190808211156109ee576109ee611b07565b63ffffffff8281168282160390808211156109ee576109ee611b07565b600063ffffffff80841680611dac57611dac611d31565b92169190910692915050565b600063ffffffff808316818103611dd157611dd1611b07565b6001019392505050565b6001600160401b038281168282160390808211156109ee576109ee611b07565b808202811582820484141761063a5761063a611b07565b60005b83811015611e2d578181015183820152602001611e15565b50506000910152565b7f416363657373436f6e74726f6c3a206163636f756e7420000000000000000000815260008351611e6e816017850160208801611e12565b7001034b99036b4b9b9b4b733903937b6329607d1b6017918401918201528351611e9f816028840160208801611e12565b01602801949350505050565b6020815260008251806020840152611eca816040850160208701611e12565b601f01601f19169190910160400192915050565b634e487b7160e01b600052604160045260246000fd5b600081611f0357611f03611b07565b50600019019056fea076a07f65bcd51bcb15a0f01a65bc18f2d922acb81bcfd8af4caf5adb557091a2646970667358221220ba4e1087d1ec30636489e593b918882091464b25dc41e75ba9f033fb773e638064736f6c63430008110033",
    "sourcePath": "/Users/joshua/work/hackthon/chainlink2022/PricePrizePool/packages/hardhat/contracts/PricePrizePool.sol",
    "compiler": {
        "name": "solc",
        "version": "0.8.17+commit.8df45f5f"
    },
    "functionHashes": {
        "DEFAULT_ADMIN_ROLE()": "a217fddf",
        "MANAGE_ROLE()": "60a4b76a",
        "MAX_CARDINALITY()": "8200d873",
        "betPeriodSeconds()": "645b3e05",
        "bets(uint32,address,uint32)": "e75b6e6d",
        "changeBetSeconds(uint32)": "5877b508",
        "changePriceSetSeconds(uint32)": "819060da",
        "claim()": "4e71d92d",
        "deposit(uint32)": "b7e8bc99",
        "generalInfo()": "25a6c545",
        "getRoleAdmin(bytes32)": "248a9ca3",
        "grantRole(bytes32,address)": "2f2ff15d",
        "guessTotalDeposit(uint32,uint32)": "521f4af4",
        "hasRole(bytes32,address)": "91d14854",
        "myWinnings(address)": "91583fe5",
        "owner()": "8da5cb5b",
        "priceInfo()": "81059f78",
        "priceSetSeconds()": "c17466f9",
        "renounceOwnership()": "715018a6",
        "renounceRole(bytes32,address)": "36568abe",
        "revokeRole(bytes32,address)": "d547741f",
        "roundId()": "8cd221c9",
        "roundStartedAt()": "a16e56fc",
        "roundTotal()": "ca8040c4",
        "setFinalPrice()": "5b679b0d",
        "supportsInterface(bytes4)": "01ffc9a7",
        "transferOwnership(address)": "f2fde38b",
        "updateManageRole(address,address)": "5e5698da"
    },
    "gasEstimates": {
        "creation": {
            "codeDepositCost": "1606600",
            "executionCost": "infinite",
            "totalCost": "infinite"
        },
        "external": {
            "DEFAULT_ADMIN_ROLE()": "240",
            "MANAGE_ROLE()": "infinite",
            "MAX_CARDINALITY()": "272",
            "betPeriodSeconds()": "2397",
            "bets(uint32,address,uint32)": "infinite",
            "changeBetSeconds(uint32)": "26768",
            "changePriceSetSeconds(uint32)": "26771",
            "claim()": "infinite",
            "deposit(uint32)": "infinite",
            "generalInfo()": "infinite",
            "getRoleAdmin(bytes32)": "2519",
            "grantRole(bytes32,address)": "infinite",
            "guessTotalDeposit(uint32,uint32)": "infinite",
            "hasRole(bytes32,address)": "2743",
            "myWinnings(address)": "infinite",
            "owner()": "2346",
            "priceInfo()": "13638",
            "priceSetSeconds()": "2419",
            "renounceOwnership()": "infinite",
            "renounceRole(bytes32,address)": "29069",
            "revokeRole(bytes32,address)": "infinite",
            "roundId()": "2420",
            "roundStartedAt()": "2448",
            "roundTotal()": "2339",
            "setFinalPrice()": "infinite",
            "supportsInterface(bytes4)": "473",
            "transferOwnership(address)": "28443",
            "updateManageRole(address,address)": "infinite"
        },
        "internal": {
            "_canClaim()": "infinite",
            "_currentTime()": "infinite",
            "_isGuessTimeOver()": "4426"
        }
    }
}